{
    "_format": "hh-sol-artifact-1",
    "contractName": "RoboPunksNFT",
    "sourceName": "contracts/RoboPunksNFT.sol",
    "abi": [
        {
            "inputs": [],
            "stateMutability": "payable",
            "type": "constructor"
        },
        {
            "anonymous": false,
            "inputs": [
                {
                    "indexed": true,
                    "internalType": "address",
                    "name": "owner",
                    "type": "address"
                },
                {
                    "indexed": true,
                    "internalType": "address",
                    "name": "approved",
                    "type": "address"
                },
                {
                    "indexed": true,
                    "internalType": "uint256",
                    "name": "tokenId",
                    "type": "uint256"
                }
            ],
            "name": "Approval",
            "type": "event"
        },
        {
            "anonymous": false,
            "inputs": [
                {
                    "indexed": true,
                    "internalType": "address",
                    "name": "owner",
                    "type": "address"
                },
                {
                    "indexed": true,
                    "internalType": "address",
                    "name": "operator",
                    "type": "address"
                },
                {
                    "indexed": false,
                    "internalType": "bool",
                    "name": "approved",
                    "type": "bool"
                }
            ],
            "name": "ApprovalForAll",
            "type": "event"
        },
        {
            "anonymous": false,
            "inputs": [
                {
                    "indexed": true,
                    "internalType": "address",
                    "name": "previousOwner",
                    "type": "address"
                },
                {
                    "indexed": true,
                    "internalType": "address",
                    "name": "newOwner",
                    "type": "address"
                }
            ],
            "name": "OwnershipTransferred",
            "type": "event"
        },
        {
            "anonymous": false,
            "inputs": [
                {
                    "indexed": true,
                    "internalType": "address",
                    "name": "from",
                    "type": "address"
                },
                {
                    "indexed": true,
                    "internalType": "address",
                    "name": "to",
                    "type": "address"
                },
                {
                    "indexed": true,
                    "internalType": "uint256",
                    "name": "tokenId",
                    "type": "uint256"
                }
            ],
            "name": "Transfer",
            "type": "event"
        },
        {
            "inputs": [
                {
                    "internalType": "address",
                    "name": "to",
                    "type": "address"
                },
                {
                    "internalType": "uint256",
                    "name": "tokenId",
                    "type": "uint256"
                }
            ],
            "name": "approve",
            "outputs": [],
            "stateMutability": "nonpayable",
            "type": "function"
        },
        {
            "inputs": [
                {
                    "internalType": "address",
                    "name": "owner",
                    "type": "address"
                }
            ],
            "name": "balanceOf",
            "outputs": [
                {
                    "internalType": "uint256",
                    "name": "",
                    "type": "uint256"
                }
            ],
            "stateMutability": "view",
            "type": "function"
        },
        {
            "inputs": [
                {
                    "internalType": "uint256",
                    "name": "tokenId",
                    "type": "uint256"
                }
            ],
            "name": "getApproved",
            "outputs": [
                {
                    "internalType": "address",
                    "name": "",
                    "type": "address"
                }
            ],
            "stateMutability": "view",
            "type": "function"
        },
        {
            "inputs": [
                {
                    "internalType": "address",
                    "name": "owner",
                    "type": "address"
                },
                {
                    "internalType": "address",
                    "name": "operator",
                    "type": "address"
                }
            ],
            "name": "isApprovedForAll",
            "outputs": [
                {
                    "internalType": "bool",
                    "name": "",
                    "type": "bool"
                }
            ],
            "stateMutability": "view",
            "type": "function"
        },
        {
            "inputs": [],
            "name": "isPublicMintEnable",
            "outputs": [
                {
                    "internalType": "bool",
                    "name": "",
                    "type": "bool"
                }
            ],
            "stateMutability": "view",
            "type": "function"
        },
        {
            "inputs": [],
            "name": "maxPerwallet",
            "outputs": [
                {
                    "internalType": "uint256",
                    "name": "",
                    "type": "uint256"
                }
            ],
            "stateMutability": "view",
            "type": "function"
        },
        {
            "inputs": [],
            "name": "maxSupply",
            "outputs": [
                {
                    "internalType": "uint256",
                    "name": "",
                    "type": "uint256"
                }
            ],
            "stateMutability": "view",
            "type": "function"
        },
        {
            "inputs": [
                {
                    "internalType": "uint256",
                    "name": "quantity",
                    "type": "uint256"
                }
            ],
            "name": "mint",
            "outputs": [],
            "stateMutability": "payable",
            "type": "function"
        },
        {
            "inputs": [],
            "name": "mintPrice",
            "outputs": [
                {
                    "internalType": "uint256",
                    "name": "",
                    "type": "uint256"
                }
            ],
            "stateMutability": "view",
            "type": "function"
        },
        {
            "inputs": [],
            "name": "name",
            "outputs": [
                {
                    "internalType": "string",
                    "name": "",
                    "type": "string"
                }
            ],
            "stateMutability": "view",
            "type": "function"
        },
        {
            "inputs": [],
            "name": "owner",
            "outputs": [
                {
                    "internalType": "address",
                    "name": "",
                    "type": "address"
                }
            ],
            "stateMutability": "view",
            "type": "function"
        },
        {
            "inputs": [
                {
                    "internalType": "uint256",
                    "name": "tokenId",
                    "type": "uint256"
                }
            ],
            "name": "ownerOf",
            "outputs": [
                {
                    "internalType": "address",
                    "name": "",
                    "type": "address"
                }
            ],
            "stateMutability": "view",
            "type": "function"
        },
        {
            "inputs": [],
            "name": "renounceOwnership",
            "outputs": [],
            "stateMutability": "nonpayable",
            "type": "function"
        },
        {
            "inputs": [
                {
                    "internalType": "address",
                    "name": "from",
                    "type": "address"
                },
                {
                    "internalType": "address",
                    "name": "to",
                    "type": "address"
                },
                {
                    "internalType": "uint256",
                    "name": "tokenId",
                    "type": "uint256"
                }
            ],
            "name": "safeTransferFrom",
            "outputs": [],
            "stateMutability": "nonpayable",
            "type": "function"
        },
        {
            "inputs": [
                {
                    "internalType": "address",
                    "name": "from",
                    "type": "address"
                },
                {
                    "internalType": "address",
                    "name": "to",
                    "type": "address"
                },
                {
                    "internalType": "uint256",
                    "name": "tokenId",
                    "type": "uint256"
                },
                {
                    "internalType": "bytes",
                    "name": "data",
                    "type": "bytes"
                }
            ],
            "name": "safeTransferFrom",
            "outputs": [],
            "stateMutability": "nonpayable",
            "type": "function"
        },
        {
            "inputs": [
                {
                    "internalType": "address",
                    "name": "operator",
                    "type": "address"
                },
                {
                    "internalType": "bool",
                    "name": "approved",
                    "type": "bool"
                }
            ],
            "name": "setApprovalForAll",
            "outputs": [],
            "stateMutability": "nonpayable",
            "type": "function"
        },
        {
            "inputs": [
                {
                    "internalType": "string",
                    "name": "_baseTokenUri",
                    "type": "string"
                }
            ],
            "name": "setBasedTokenUri",
            "outputs": [],
            "stateMutability": "nonpayable",
            "type": "function"
        },
        {
            "inputs": [
                {
                    "internalType": "bool",
                    "name": "isEnabled",
                    "type": "bool"
                }
            ],
            "name": "setIsPublicMintEnabled",
            "outputs": [],
            "stateMutability": "nonpayable",
            "type": "function"
        },
        {
            "inputs": [
                {
                    "internalType": "bytes4",
                    "name": "interfaceId",
                    "type": "bytes4"
                }
            ],
            "name": "supportsInterface",
            "outputs": [
                {
                    "internalType": "bool",
                    "name": "",
                    "type": "bool"
                }
            ],
            "stateMutability": "view",
            "type": "function"
        },
        {
            "inputs": [],
            "name": "symbol",
            "outputs": [
                {
                    "internalType": "string",
                    "name": "",
                    "type": "string"
                }
            ],
            "stateMutability": "view",
            "type": "function"
        },
        {
            "inputs": [
                {
                    "internalType": "uint256",
                    "name": "tokenid",
                    "type": "uint256"
                }
            ],
            "name": "tokenURI",
            "outputs": [
                {
                    "internalType": "string",
                    "name": "",
                    "type": "string"
                }
            ],
            "stateMutability": "view",
            "type": "function"
        },
        {
            "inputs": [],
            "name": "totalSupply",
            "outputs": [
                {
                    "internalType": "uint256",
                    "name": "",
                    "type": "uint256"
                }
            ],
            "stateMutability": "view",
            "type": "function"
        },
        {
            "inputs": [
                {
                    "internalType": "address",
                    "name": "from",
                    "type": "address"
                },
                {
                    "internalType": "address",
                    "name": "to",
                    "type": "address"
                },
                {
                    "internalType": "uint256",
                    "name": "tokenId",
                    "type": "uint256"
                }
            ],
            "name": "transferFrom",
            "outputs": [],
            "stateMutability": "nonpayable",
            "type": "function"
        },
        {
            "inputs": [
                {
                    "internalType": "address",
                    "name": "newOwner",
                    "type": "address"
                }
            ],
            "name": "transferOwnership",
            "outputs": [],
            "stateMutability": "nonpayable",
            "type": "function"
        },
        {
            "inputs": [
                {
                    "internalType": "address",
                    "name": "",
                    "type": "address"
                }
            ],
            "name": "walletMints",
            "outputs": [
                {
                    "internalType": "uint256",
                    "name": "",
                    "type": "uint256"
                }
            ],
            "stateMutability": "view",
            "type": "function"
        },
        {
            "inputs": [],
            "name": "withdraw",
            "outputs": [],
            "stateMutability": "nonpayable",
            "type": "function"
        },
        {
            "inputs": [],
            "name": "withdrawWallet",
            "outputs": [
                {
                    "internalType": "address payable",
                    "name": "",
                    "type": "address"
                }
            ],
            "stateMutability": "view",
            "type": "function"
        }
    ],
    "bytecode": "0x60806040526040518060400160405280600981526020017f526f626f50756e6b7300000000000000000000000000000000000000000000008152506040518060400160405280600281526020017f5250000000000000000000000000000000000000000000000000000000000000815250816000908162000081919062000425565b50806001908162000093919062000425565b505050620000b6620000aa620000dd60201b60201c565b620000e560201b60201c565b600060078190555060006008819055506103e86009819055506003600a819055506200050c565b600033905090565b6000600660009054906101000a900473ffffffffffffffffffffffffffffffffffffffff16905081600660006101000a81548173ffffffffffffffffffffffffffffffffffffffff021916908373ffffffffffffffffffffffffffffffffffffffff1602179055508173ffffffffffffffffffffffffffffffffffffffff168173ffffffffffffffffffffffffffffffffffffffff167f8be0079c531659141344cd1fd0a4f28419497f9722a3daafe3b4186f6b6457e060405160405180910390a35050565b600081519050919050565b7f4e487b7100000000000000000000000000000000000000000000000000000000600052604160045260246000fd5b7f4e487b7100000000000000000000000000000000000000000000000000000000600052602260045260246000fd5b600060028204905060018216806200022d57607f821691505b602082108103620002435762000242620001e5565b5b50919050565b60008190508160005260206000209050919050565b60006020601f8301049050919050565b600082821b905092915050565b600060088302620002ad7fffffffffffffffffffffffffffffffffffffffffffffffffffffffffffffffff826200026e565b620002b986836200026e565b95508019841693508086168417925050509392505050565b6000819050919050565b6000819050919050565b60006200030662000300620002fa84620002d1565b620002db565b620002d1565b9050919050565b6000819050919050565b6200032283620002e5565b6200033a62000331826200030d565b8484546200027b565b825550505050565b600090565b6200035162000342565b6200035e81848462000317565b505050565b5b8181101562000386576200037a60008262000347565b60018101905062000364565b5050565b601f821115620003d5576200039f8162000249565b620003aa846200025e565b81016020851015620003ba578190505b620003d2620003c9856200025e565b83018262000363565b50505b505050565b600082821c905092915050565b6000620003fa60001984600802620003da565b1980831691505092915050565b6000620004158383620003e7565b9150826002028217905092915050565b6200043082620001ab565b67ffffffffffffffff8111156200044c576200044b620001b6565b5b62000458825462000214565b620004658282856200038a565b600060209050601f8311600181146200049d576000841562000488578287015190505b62000494858262000407565b86555062000504565b601f198416620004ad8662000249565b60005b82811015620004d757848901518255600182019150602085019450602081019050620004b0565b86831015620004f75784890151620004f3601f891682620003e7565b8355505b6001600288020188555050505b505050505050565b6136b5806200051c6000396000f3fe60806040526004361061019c5760003560e01c8063715018a6116100ec578063b570207d1161008a578063d5abeb0111610064578063d5abeb0114610593578063e985e9c5146105be578063f0293fd3146105fb578063f2fde38b146106385761019c565b8063b570207d14610502578063b88d4fde1461052d578063c87b56dd146105565761019c565b80638da5cb5b116100c65780638da5cb5b1461046757806395d89b4114610492578063a0712d68146104bd578063a22cb465146104d95761019c565b8063715018a6146103fa57806385d178f41461041157806389f0d4011461043c5761019c565b80632373ac221161015957806342842e0e1161013357806342842e0e1461032c5780636352211e146103555780636817c76c1461039257806370a08231146103bd5761019c565b80632373ac22146102c357806323b872dd146102ec5780633ccfd60b146103155761019c565b806301ffc9a7146101a157806306fdde03146101de578063081812fc14610209578063095ea7b31461024657806315ac9dfd1461026f57806318160ddd14610298575b600080fd5b3480156101ad57600080fd5b506101c860048036038101906101c39190612081565b610661565b6040516101d591906120c9565b60405180910390f35b3480156101ea57600080fd5b506101f3610743565b6040516102009190612174565b60405180910390f35b34801561021557600080fd5b50610230600480360381019061022b91906121cc565b6107d5565b60405161023d919061223a565b60405180910390f35b34801561025257600080fd5b5061026d60048036038101906102689190612281565b61081b565b005b34801561027b57600080fd5b5061029660048036038101906102919190612326565b610932565b005b3480156102a457600080fd5b506102ad610950565b6040516102ba9190612382565b60405180910390f35b3480156102cf57600080fd5b506102ea60048036038101906102e591906123c9565b610956565b005b3480156102f857600080fd5b50610313600480360381019061030e91906123f6565b61097b565b005b34801561032157600080fd5b5061032a6109db565b005b34801561033857600080fd5b50610353600480360381019061034e91906123f6565b610ab4565b005b34801561036157600080fd5b5061037c600480360381019061037791906121cc565b610ad4565b604051610389919061223a565b60405180910390f35b34801561039e57600080fd5b506103a7610b5a565b6040516103b49190612382565b60405180910390f35b3480156103c957600080fd5b506103e460048036038101906103df9190612449565b610b60565b6040516103f19190612382565b60405180910390f35b34801561040657600080fd5b5061040f610c17565b005b34801561041d57600080fd5b50610426610c2b565b6040516104339190612497565b60405180910390f35b34801561044857600080fd5b50610451610c51565b60405161045e91906120c9565b60405180910390f35b34801561047357600080fd5b5061047c610c64565b604051610489919061223a565b60405180910390f35b34801561049e57600080fd5b506104a7610c8e565b6040516104b49190612174565b60405180910390f35b6104d760048036038101906104d291906121cc565b610d20565b005b3480156104e557600080fd5b5061050060048036038101906104fb91906124b2565b610eeb565b005b34801561050e57600080fd5b50610517610f01565b6040516105249190612382565b60405180910390f35b34801561053957600080fd5b50610554600480360381019061054f9190612622565b610f07565b005b34801561056257600080fd5b5061057d600480360381019061057891906121cc565b610f69565b60405161058a9190612174565b60405180910390f35b34801561059f57600080fd5b506105a8610fe5565b6040516105b59190612382565b60405180910390f35b3480156105ca57600080fd5b506105e560048036038101906105e091906126a5565b610feb565b6040516105f291906120c9565b60405180910390f35b34801561060757600080fd5b50610622600480360381019061061d9190612449565b61107f565b60405161062f9190612382565b60405180910390f35b34801561064457600080fd5b5061065f600480360381019061065a9190612449565b611097565b005b60007f80ac58cd000000000000000000000000000000000000000000000000000000007bffffffffffffffffffffffffffffffffffffffffffffffffffffffff1916827bffffffffffffffffffffffffffffffffffffffffffffffffffffffff1916148061072c57507f5b5e139f000000000000000000000000000000000000000000000000000000007bffffffffffffffffffffffffffffffffffffffffffffffffffffffff1916827bffffffffffffffffffffffffffffffffffffffffffffffffffffffff1916145b8061073c575061073b8261111a565b5b9050919050565b60606000805461075290612714565b80601f016020809104026020016040519081016040528092919081815260200182805461077e90612714565b80156107cb5780601f106107a0576101008083540402835291602001916107cb565b820191906000526020600020905b8154815290600101906020018083116107ae57829003601f168201915b5050505050905090565b60006107e082611184565b6004600083815260200190815260200160002060009054906101000a900473ffffffffffffffffffffffffffffffffffffffff169050919050565b600061082682610ad4565b90508073ffffffffffffffffffffffffffffffffffffffff168373ffffffffffffffffffffffffffffffffffffffff1603610896576040517f08c379a000000000000000000000000000000000000000000000000000000000815260040161088d906127b7565b60405180910390fd5b8073ffffffffffffffffffffffffffffffffffffffff166108b56111cf565b73ffffffffffffffffffffffffffffffffffffffff1614806108e457506108e3816108de6111cf565b610feb565b5b610923576040517f08c379a000000000000000000000000000000000000000000000000000000000815260040161091a90612849565b60405180910390fd5b61092d83836111d7565b505050565b61093a611290565b8181600c918261094b929190612a20565b505050565b60085481565b61095e611290565b80600b60006101000a81548160ff02191690831515021790555050565b61098c6109866111cf565b8261130e565b6109cb576040517f08c379a00000000000000000000000000000000000000000000000000000000081526004016109c290612b62565b60405180910390fd5b6109d68383836113a3565b505050565b6109e3611290565b6000600d60009054906101000a900473ffffffffffffffffffffffffffffffffffffffff1673ffffffffffffffffffffffffffffffffffffffff1647604051610a2b90612bb3565b60006040518083038185875af1925050503d8060008114610a68576040519150601f19603f3d011682016040523d82523d6000602084013e610a6d565b606091505b5050905080610ab1576040517f08c379a0000000000000000000000000000000000000000000000000000000008152600401610aa890612c14565b60405180910390fd5b50565b610acf83838360405180602001604052806000815250610f07565b505050565b600080610ae08361169c565b9050600073ffffffffffffffffffffffffffffffffffffffff168173ffffffffffffffffffffffffffffffffffffffff1603610b51576040517f08c379a0000000000000000000000000000000000000000000000000000000008152600401610b4890612c80565b60405180910390fd5b80915050919050565b60075481565b60008073ffffffffffffffffffffffffffffffffffffffff168273ffffffffffffffffffffffffffffffffffffffff1603610bd0576040517f08c379a0000000000000000000000000000000000000000000000000000000008152600401610bc790612d12565b60405180910390fd5b600360008373ffffffffffffffffffffffffffffffffffffffff1673ffffffffffffffffffffffffffffffffffffffff168152602001908152602001600020549050919050565b610c1f611290565b610c2960006116d9565b565b600d60009054906101000a900473ffffffffffffffffffffffffffffffffffffffff1681565b600b60009054906101000a900460ff1681565b6000600660009054906101000a900473ffffffffffffffffffffffffffffffffffffffff16905090565b606060018054610c9d90612714565b80601f0160208091040260200160405190810160405280929190818152602001828054610cc990612714565b8015610d165780601f10610ceb57610100808354040283529160200191610d16565b820191906000526020600020905b815481529060010190602001808311610cf957829003601f168201915b5050505050905090565b600b60009054906101000a900460ff16610d6f576040517f08c379a0000000000000000000000000000000000000000000000000000000008152600401610d6690612d7e565b60405180910390fd5b60075481610d7d9190612dcd565b3414610dbe576040517f08c379a0000000000000000000000000000000000000000000000000000000008152600401610db590612e5b565b60405180910390fd5b60095481600854610dcf9190612dcd565b1115610e10576040517f08c379a0000000000000000000000000000000000000000000000000000000008152600401610e0790612ec7565b60405180910390fd5b600a5481600e60003373ffffffffffffffffffffffffffffffffffffffff1673ffffffffffffffffffffffffffffffffffffffff16815260200190815260200160002054610e5e9190612ee7565b1115610e9f576040517f08c379a0000000000000000000000000000000000000000000000000000000008152600401610e9690612f67565b60405180910390fd5b60005b81811015610ee7576000600854905060086000815480929190610ec490612f87565b9190505550610ed3338261179f565b508080610edf90612f87565b915050610ea2565b5050565b610efd610ef66111cf565b83836117bd565b5050565b600a5481565b610f18610f126111cf565b8361130e565b610f57576040517f08c379a0000000000000000000000000000000000000000000000000000000008152600401610f4e90612b62565b60405180910390fd5b610f6384848484611929565b50505050565b6060610f7482611985565b610fb3576040517f08c379a0000000000000000000000000000000000000000000000000000000008152600401610faa9061301b565b60405180910390fd5b600c610fbe836119c6565b604051602001610fcf929190613146565b6040516020818303038152906040529050919050565b60095481565b6000600560008473ffffffffffffffffffffffffffffffffffffffff1673ffffffffffffffffffffffffffffffffffffffff16815260200190815260200160002060008373ffffffffffffffffffffffffffffffffffffffff1673ffffffffffffffffffffffffffffffffffffffff16815260200190815260200160002060009054906101000a900460ff16905092915050565b600e6020528060005260406000206000915090505481565b61109f611290565b600073ffffffffffffffffffffffffffffffffffffffff168173ffffffffffffffffffffffffffffffffffffffff160361110e576040517f08c379a0000000000000000000000000000000000000000000000000000000008152600401611105906131e7565b60405180910390fd5b611117816116d9565b50565b60007f01ffc9a7000000000000000000000000000000000000000000000000000000007bffffffffffffffffffffffffffffffffffffffffffffffffffffffff1916827bffffffffffffffffffffffffffffffffffffffffffffffffffffffff1916149050919050565b61118d81611985565b6111cc576040517f08c379a00000000000000000000000000000000000000000000000000000000081526004016111c390612c80565b60405180910390fd5b50565b600033905090565b816004600083815260200190815260200160002060006101000a81548173ffffffffffffffffffffffffffffffffffffffff021916908373ffffffffffffffffffffffffffffffffffffffff160217905550808273ffffffffffffffffffffffffffffffffffffffff1661124a83610ad4565b73ffffffffffffffffffffffffffffffffffffffff167f8c5be1e5ebec7d5bd14f71427d1e84f3dd0314c0f7b2291e5b200ac8c7c3b92560405160405180910390a45050565b6112986111cf565b73ffffffffffffffffffffffffffffffffffffffff166112b6610c64565b73ffffffffffffffffffffffffffffffffffffffff161461130c576040517f08c379a000000000000000000000000000000000000000000000000000000000815260040161130390613253565b60405180910390fd5b565b60008061131a83610ad4565b90508073ffffffffffffffffffffffffffffffffffffffff168473ffffffffffffffffffffffffffffffffffffffff16148061135c575061135b8185610feb565b5b8061139a57508373ffffffffffffffffffffffffffffffffffffffff16611382846107d5565b73ffffffffffffffffffffffffffffffffffffffff16145b91505092915050565b8273ffffffffffffffffffffffffffffffffffffffff166113c382610ad4565b73ffffffffffffffffffffffffffffffffffffffff1614611419576040517f08c379a0000000000000000000000000000000000000000000000000000000008152600401611410906132e5565b60405180910390fd5b600073ffffffffffffffffffffffffffffffffffffffff168273ffffffffffffffffffffffffffffffffffffffff1603611488576040517f08c379a000000000000000000000000000000000000000000000000000000000815260040161147f90613377565b60405180910390fd5b6114958383836001611a94565b8273ffffffffffffffffffffffffffffffffffffffff166114b582610ad4565b73ffffffffffffffffffffffffffffffffffffffff161461150b576040517f08c379a0000000000000000000000000000000000000000000000000000000008152600401611502906132e5565b60405180910390fd5b6004600082815260200190815260200160002060006101000a81549073ffffffffffffffffffffffffffffffffffffffff02191690556001600360008573ffffffffffffffffffffffffffffffffffffffff1673ffffffffffffffffffffffffffffffffffffffff168152602001908152602001600020600082825403925050819055506001600360008473ffffffffffffffffffffffffffffffffffffffff1673ffffffffffffffffffffffffffffffffffffffff16815260200190815260200160002060008282540192505081905550816002600083815260200190815260200160002060006101000a81548173ffffffffffffffffffffffffffffffffffffffff021916908373ffffffffffffffffffffffffffffffffffffffff160217905550808273ffffffffffffffffffffffffffffffffffffffff168473ffffffffffffffffffffffffffffffffffffffff167fddf252ad1be2c89b69c2b068fc378daa952ba7f163c4a11628f55a4df523b3ef60405160405180910390a46116978383836001611a9a565b505050565b60006002600083815260200190815260200160002060009054906101000a900473ffffffffffffffffffffffffffffffffffffffff169050919050565b6000600660009054906101000a900473ffffffffffffffffffffffffffffffffffffffff16905081600660006101000a81548173ffffffffffffffffffffffffffffffffffffffff021916908373ffffffffffffffffffffffffffffffffffffffff1602179055508173ffffffffffffffffffffffffffffffffffffffff168173ffffffffffffffffffffffffffffffffffffffff167f8be0079c531659141344cd1fd0a4f28419497f9722a3daafe3b4186f6b6457e060405160405180910390a35050565b6117b9828260405180602001604052806000815250611aa0565b5050565b8173ffffffffffffffffffffffffffffffffffffffff168373ffffffffffffffffffffffffffffffffffffffff160361182b576040517f08c379a0000000000000000000000000000000000000000000000000000000008152600401611822906133e3565b60405180910390fd5b80600560008573ffffffffffffffffffffffffffffffffffffffff1673ffffffffffffffffffffffffffffffffffffffff16815260200190815260200160002060008473ffffffffffffffffffffffffffffffffffffffff1673ffffffffffffffffffffffffffffffffffffffff16815260200190815260200160002060006101000a81548160ff0219169083151502179055508173ffffffffffffffffffffffffffffffffffffffff168373ffffffffffffffffffffffffffffffffffffffff167f17307eab39ab6107e8899845ad3d59bd9653f200f220920489ca2b5937696c318360405161191c91906120c9565b60405180910390a3505050565b6119348484846113a3565b61194084848484611afb565b61197f576040517f08c379a000000000000000000000000000000000000000000000000000000000815260040161197690613475565b60405180910390fd5b50505050565b60008073ffffffffffffffffffffffffffffffffffffffff166119a78361169c565b73ffffffffffffffffffffffffffffffffffffffff1614159050919050565b6060600060016119d584611c82565b01905060008167ffffffffffffffff8111156119f4576119f36124f7565b5b6040519080825280601f01601f191660200182016040528015611a265781602001600182028036833780820191505090505b509050600082602001820190505b600115611a89578080600190039150507f3031323334353637383961626364656600000000000000000000000000000000600a86061a8153600a8581611a7d57611a7c613495565b5b04945060008503611a34575b819350505050919050565b50505050565b50505050565b611aaa8383611dd5565b611ab76000848484611afb565b611af6576040517f08c379a0000000000000000000000000000000000000000000000000000000008152600401611aed90613475565b60405180910390fd5b505050565b6000611b1c8473ffffffffffffffffffffffffffffffffffffffff16611ff2565b15611c75578373ffffffffffffffffffffffffffffffffffffffff1663150b7a02611b456111cf565b8786866040518563ffffffff1660e01b8152600401611b679493929190613519565b6020604051808303816000875af1925050508015611ba357506040513d601f19601f82011682018060405250810190611ba0919061357a565b60015b611c25573d8060008114611bd3576040519150601f19603f3d011682016040523d82523d6000602084013e611bd8565b606091505b506000815103611c1d576040517f08c379a0000000000000000000000000000000000000000000000000000000008152600401611c1490613475565b60405180910390fd5b805181602001fd5b63150b7a0260e01b7bffffffffffffffffffffffffffffffffffffffffffffffffffffffff1916817bffffffffffffffffffffffffffffffffffffffffffffffffffffffff191614915050611c7a565b600190505b949350505050565b600080600090507a184f03e93ff9f4daa797ed6e38ed64bf6a1f0100000000000000008310611ce0577a184f03e93ff9f4daa797ed6e38ed64bf6a1f0100000000000000008381611cd657611cd5613495565b5b0492506040810190505b6d04ee2d6d415b85acef81000000008310611d1d576d04ee2d6d415b85acef81000000008381611d1357611d12613495565b5b0492506020810190505b662386f26fc100008310611d4c57662386f26fc100008381611d4257611d41613495565b5b0492506010810190505b6305f5e1008310611d75576305f5e1008381611d6b57611d6a613495565b5b0492506008810190505b6127108310611d9a576127108381611d9057611d8f613495565b5b0492506004810190505b60648310611dbd5760648381611db357611db2613495565b5b0492506002810190505b600a8310611dcc576001810190505b80915050919050565b600073ffffffffffffffffffffffffffffffffffffffff168273ffffffffffffffffffffffffffffffffffffffff1603611e44576040517f08c379a0000000000000000000000000000000000000000000000000000000008152600401611e3b906135f3565b60405180910390fd5b611e4d81611985565b15611e8d576040517f08c379a0000000000000000000000000000000000000000000000000000000008152600401611e849061365f565b60405180910390fd5b611e9b600083836001611a94565b611ea481611985565b15611ee4576040517f08c379a0000000000000000000000000000000000000000000000000000000008152600401611edb9061365f565b60405180910390fd5b6001600360008473ffffffffffffffffffffffffffffffffffffffff1673ffffffffffffffffffffffffffffffffffffffff16815260200190815260200160002060008282540192505081905550816002600083815260200190815260200160002060006101000a81548173ffffffffffffffffffffffffffffffffffffffff021916908373ffffffffffffffffffffffffffffffffffffffff160217905550808273ffffffffffffffffffffffffffffffffffffffff16600073ffffffffffffffffffffffffffffffffffffffff167fddf252ad1be2c89b69c2b068fc378daa952ba7f163c4a11628f55a4df523b3ef60405160405180910390a4611fee600083836001611a9a565b5050565b6000808273ffffffffffffffffffffffffffffffffffffffff163b119050919050565b6000604051905090565b600080fd5b600080fd5b60007fffffffff0000000000000000000000000000000000000000000000000000000082169050919050565b61205e81612029565b811461206957600080fd5b50565b60008135905061207b81612055565b92915050565b6000602082840312156120975761209661201f565b5b60006120a58482850161206c565b91505092915050565b60008115159050919050565b6120c3816120ae565b82525050565b60006020820190506120de60008301846120ba565b92915050565b600081519050919050565b600082825260208201905092915050565b60005b8381101561211e578082015181840152602081019050612103565b60008484015250505050565b6000601f19601f8301169050919050565b6000612146826120e4565b61215081856120ef565b9350612160818560208601612100565b6121698161212a565b840191505092915050565b6000602082019050818103600083015261218e818461213b565b905092915050565b6000819050919050565b6121a981612196565b81146121b457600080fd5b50565b6000813590506121c6816121a0565b92915050565b6000602082840312156121e2576121e161201f565b5b60006121f0848285016121b7565b91505092915050565b600073ffffffffffffffffffffffffffffffffffffffff82169050919050565b6000612224826121f9565b9050919050565b61223481612219565b82525050565b600060208201905061224f600083018461222b565b92915050565b61225e81612219565b811461226957600080fd5b50565b60008135905061227b81612255565b92915050565b600080604083850312156122985761229761201f565b5b60006122a68582860161226c565b92505060206122b7858286016121b7565b9150509250929050565b600080fd5b600080fd5b600080fd5b60008083601f8401126122e6576122e56122c1565b5b8235905067ffffffffffffffff811115612303576123026122c6565b5b60208301915083600182028301111561231f5761231e6122cb565b5b9250929050565b6000806020838503121561233d5761233c61201f565b5b600083013567ffffffffffffffff81111561235b5761235a612024565b5b612367858286016122d0565b92509250509250929050565b61237c81612196565b82525050565b60006020820190506123976000830184612373565b92915050565b6123a6816120ae565b81146123b157600080fd5b50565b6000813590506123c38161239d565b92915050565b6000602082840312156123df576123de61201f565b5b60006123ed848285016123b4565b91505092915050565b60008060006060848603121561240f5761240e61201f565b5b600061241d8682870161226c565b935050602061242e8682870161226c565b925050604061243f868287016121b7565b9150509250925092565b60006020828403121561245f5761245e61201f565b5b600061246d8482850161226c565b91505092915050565b6000612481826121f9565b9050919050565b61249181612476565b82525050565b60006020820190506124ac6000830184612488565b92915050565b600080604083850312156124c9576124c861201f565b5b60006124d78582860161226c565b92505060206124e8858286016123b4565b9150509250929050565b600080fd5b7f4e487b7100000000000000000000000000000000000000000000000000000000600052604160045260246000fd5b61252f8261212a565b810181811067ffffffffffffffff8211171561254e5761254d6124f7565b5b80604052505050565b6000612561612015565b905061256d8282612526565b919050565b600067ffffffffffffffff82111561258d5761258c6124f7565b5b6125968261212a565b9050602081019050919050565b82818337600083830152505050565b60006125c56125c084612572565b612557565b9050828152602081018484840111156125e1576125e06124f2565b5b6125ec8482856125a3565b509392505050565b600082601f830112612609576126086122c1565b5b81356126198482602086016125b2565b91505092915050565b6000806000806080858703121561263c5761263b61201f565b5b600061264a8782880161226c565b945050602061265b8782880161226c565b935050604061266c878288016121b7565b925050606085013567ffffffffffffffff81111561268d5761268c612024565b5b612699878288016125f4565b91505092959194509250565b600080604083850312156126bc576126bb61201f565b5b60006126ca8582860161226c565b92505060206126db8582860161226c565b9150509250929050565b7f4e487b7100000000000000000000000000000000000000000000000000000000600052602260045260246000fd5b6000600282049050600182168061272c57607f821691505b60208210810361273f5761273e6126e5565b5b50919050565b7f4552433732313a20617070726f76616c20746f2063757272656e74206f776e6560008201527f7200000000000000000000000000000000000000000000000000000000000000602082015250565b60006127a16021836120ef565b91506127ac82612745565b604082019050919050565b600060208201905081810360008301526127d081612794565b9050919050565b7f4552433732313a20617070726f76652063616c6c6572206973206e6f7420746f60008201527f6b656e206f776e6572206f7220617070726f76656420666f7220616c6c000000602082015250565b6000612833603d836120ef565b915061283e826127d7565b604082019050919050565b6000602082019050818103600083015261286281612826565b9050919050565b600082905092915050565b60008190508160005260206000209050919050565b60006020601f8301049050919050565b600082821b905092915050565b6000600883026128d67fffffffffffffffffffffffffffffffffffffffffffffffffffffffffffffffff82612899565b6128e08683612899565b95508019841693508086168417925050509392505050565b6000819050919050565b600061291d61291861291384612196565b6128f8565b612196565b9050919050565b6000819050919050565b61293783612902565b61294b61294382612924565b8484546128a6565b825550505050565b600090565b612960612953565b61296b81848461292e565b505050565b5b8181101561298f57612984600082612958565b600181019050612971565b5050565b601f8211156129d4576129a581612874565b6129ae84612889565b810160208510156129bd578190505b6129d16129c985612889565b830182612970565b50505b505050565b600082821c905092915050565b60006129f7600019846008026129d9565b1980831691505092915050565b6000612a1083836129e6565b9150826002028217905092915050565b612a2a8383612869565b67ffffffffffffffff811115612a4357612a426124f7565b5b612a4d8254612714565b612a58828285612993565b6000601f831160018114612a875760008415612a75578287013590505b612a7f8582612a04565b865550612ae7565b601f198416612a9586612874565b60005b82811015612abd57848901358255600182019150602085019450602081019050612a98565b86831015612ada5784890135612ad6601f8916826129e6565b8355505b6001600288020188555050505b50505050505050565b7f4552433732313a2063616c6c6572206973206e6f7420746f6b656e206f776e6560008201527f72206f7220617070726f76656400000000000000000000000000000000000000602082015250565b6000612b4c602d836120ef565b9150612b5782612af0565b604082019050919050565b60006020820190508181036000830152612b7b81612b3f565b9050919050565b600081905092915050565b50565b6000612b9d600083612b82565b9150612ba882612b8d565b600082019050919050565b6000612bbe82612b90565b9150819050919050565b7f7769746864726177206661696c65640000000000000000000000000000000000600082015250565b6000612bfe600f836120ef565b9150612c0982612bc8565b602082019050919050565b60006020820190508181036000830152612c2d81612bf1565b9050919050565b7f4552433732313a20696e76616c696420746f6b656e2049440000000000000000600082015250565b6000612c6a6018836120ef565b9150612c7582612c34565b602082019050919050565b60006020820190508181036000830152612c9981612c5d565b9050919050565b7f4552433732313a2061646472657373207a65726f206973206e6f74206120766160008201527f6c6964206f776e65720000000000000000000000000000000000000000000000602082015250565b6000612cfc6029836120ef565b9150612d0782612ca0565b604082019050919050565b60006020820190508181036000830152612d2b81612cef565b9050919050565b7f6d696e74696e67206e6f7420617661696c61626c650000000000000000000000600082015250565b6000612d686015836120ef565b9150612d7382612d32565b602082019050919050565b60006020820190508181036000830152612d9781612d5b565b9050919050565b7f4e487b7100000000000000000000000000000000000000000000000000000000600052601160045260246000fd5b6000612dd882612196565b9150612de383612196565b9250828202612df181612196565b91508282048414831517612e0857612e07612d9e565b5b5092915050565b7f77726f6e672076616c7565000000000000000000000000000000000000000000600082015250565b6000612e45600b836120ef565b9150612e5082612e0f565b602082019050919050565b60006020820190508181036000830152612e7481612e38565b9050919050565b7f6e6f20737570706c79206c656674000000000000000000000000000000000000600082015250565b6000612eb1600e836120ef565b9150612ebc82612e7b565b602082019050919050565b60006020820190508181036000830152612ee081612ea4565b9050919050565b6000612ef282612196565b9150612efd83612196565b9250828201905080821115612f1557612f14612d9e565b5b92915050565b7f6578636565646564206d61782077616c6c657400000000000000000000000000600082015250565b6000612f516013836120ef565b9150612f5c82612f1b565b602082019050919050565b60006020820190508181036000830152612f8081612f44565b9050919050565b6000612f9282612196565b91507fffffffffffffffffffffffffffffffffffffffffffffffffffffffffffffffff8203612fc457612fc3612d9e565b5b600182019050919050565b7f546f6b656e20646f6573206e6f74206578697374000000000000000000000000600082015250565b60006130056014836120ef565b915061301082612fcf565b602082019050919050565b6000602082019050818103600083015261303481612ff8565b9050919050565b600081905092915050565b6000815461305381612714565b61305d818661303b565b94506001821660008114613078576001811461308d576130c0565b60ff19831686528115158202860193506130c0565b61309685612874565b60005b838110156130b857815481890152600182019150602081019050613099565b838801955050505b50505092915050565b60006130d4826120e4565b6130de818561303b565b93506130ee818560208601612100565b80840191505092915050565b7f2e6a736f6e000000000000000000000000000000000000000000000000000000600082015250565b600061313060058361303b565b915061313b826130fa565b600582019050919050565b60006131528285613046565b915061315e82846130c9565b915061316982613123565b91508190509392505050565b7f4f776e61626c653a206e6577206f776e657220697320746865207a65726f206160008201527f6464726573730000000000000000000000000000000000000000000000000000602082015250565b60006131d16026836120ef565b91506131dc82613175565b604082019050919050565b60006020820190508181036000830152613200816131c4565b9050919050565b7f4f776e61626c653a2063616c6c6572206973206e6f7420746865206f776e6572600082015250565b600061323d6020836120ef565b915061324882613207565b602082019050919050565b6000602082019050818103600083015261326c81613230565b9050919050565b7f4552433732313a207472616e736665722066726f6d20696e636f72726563742060008201527f6f776e6572000000000000000000000000000000000000000000000000000000602082015250565b60006132cf6025836120ef565b91506132da82613273565b604082019050919050565b600060208201905081810360008301526132fe816132c2565b9050919050565b7f4552433732313a207472616e7366657220746f20746865207a65726f2061646460008201527f7265737300000000000000000000000000000000000000000000000000000000602082015250565b60006133616024836120ef565b915061336c82613305565b604082019050919050565b6000602082019050818103600083015261339081613354565b9050919050565b7f4552433732313a20617070726f766520746f2063616c6c657200000000000000600082015250565b60006133cd6019836120ef565b91506133d882613397565b602082019050919050565b600060208201905081810360008301526133fc816133c0565b9050919050565b7f4552433732313a207472616e7366657220746f206e6f6e20455243373231526560008201527f63656976657220696d706c656d656e7465720000000000000000000000000000602082015250565b600061345f6032836120ef565b915061346a82613403565b604082019050919050565b6000602082019050818103600083015261348e81613452565b9050919050565b7f4e487b7100000000000000000000000000000000000000000000000000000000600052601260045260246000fd5b600081519050919050565b600082825260208201905092915050565b60006134eb826134c4565b6134f581856134cf565b9350613505818560208601612100565b61350e8161212a565b840191505092915050565b600060808201905061352e600083018761222b565b61353b602083018661222b565b6135486040830185612373565b818103606083015261355a81846134e0565b905095945050505050565b60008151905061357481612055565b92915050565b6000602082840312156135905761358f61201f565b5b600061359e84828501613565565b91505092915050565b7f4552433732313a206d696e7420746f20746865207a65726f2061646472657373600082015250565b60006135dd6020836120ef565b91506135e8826135a7565b602082019050919050565b6000602082019050818103600083015261360c816135d0565b9050919050565b7f4552433732313a20746f6b656e20616c7265616479206d696e74656400000000600082015250565b6000613649601c836120ef565b915061365482613613565b602082019050919050565b600060208201905081810360008301526136788161363c565b905091905056fea2646970667358221220d25fed6d8ebf12529826edfd97df2f1418a2169777e594a304dd684db085d5f764736f6c63430008120033",
    "linkReferences": {},
    "deployedLinkReferences": {}
}